:020000040800F2
:1000000000500020811C0008C9170008D117000803
:10001000D9170008E1170008E917000800000000E0
:10002000000000000000000000000000F1170008C0
:10003000FD17000800000000091800081518000846
:10004000C91C0008C91C0008C91C0008C91C0008FC
:10005000C91C0008C91C0008C91C0008C91C0008EC
:10006000C91C0008C91C0008C91C00082118000888
:10007000C91C0008C91C0008C91C0008C91C0008CC
:10008000C91C0008C91C0008C91C0008C91C0008BC
:10009000C91C0008C91C0008C91C0008C91C0008AC
:1000A000C91C0008C91C0008C91C0008C91C00089C
:1000B00035180008C91C0008C91C0008C91C000824
:1000C000C91C0008C91C0008C91C00084918000800
:1000D000C91C0008C91C0008C91C0008C91C00086C
:1000E000C91C0008C91C0008C91C00080000000049
:1000F0000000000000000000000000000000000000
:0C01000000000000000000005FF808F1A3
:1001100010B5054C237833B9044B13B10448AFF341
:1001200000800123237010BDD401002000000000D6
:100130004C9B000808B5034B1BB103490348AFF3C0
:10014000008008BD00000000D80100204C9B000882
:10015000034613F8012B002AFBD1181A0138704707
:1001600081F0004102E000BF83F0004330B54FEA68
:1001700041044FEA430594EA050F08BF90EA020FD5
:100180001FBF54EA000C55EA020C7FEA645C7FEA68
:10019000655C00F0E2804FEA5454D4EB5555B8BF8B
:1001A0006D420CDD2C4480EA020281EA030382EAFC
:1001B000000083EA010180EA020281EA0303362D8E
:1001C00088BF30BD11F0004F4FEA01314FF4801C61
:1001D0004CEA113102D0404261EB410113F0004F73
:1001E0004FEA03334CEA133302D0524263EB43032A
:1001F00094EA050F00F0A780A4F10104D5F1200EC8
:100200000DDB02FA0EFC22FA05F2801841F1000122
:1002100003FA0EF2801843FA05F359410EE0A5F1F6
:1002200020050EF1200E012A03FA0EFC28BF4CF027
:10023000020C43FA05F3C01851EBE37101F00045DD
:1002400007D54FF0000EDCF1000C7EEB00006EEBEA
:100250000101B1F5801F1BD3B1F5001F0CD3490874
:100260005FEA30004FEA3C0C04F101044FEA4452CB
:1002700012F5800F80F09A80BCF1004F08BF5FEA52
:10028000500C50F1000041EB045141EA050130BD32
:100290005FEA4C0C404141EB0101013C28BFB1F544
:1002A000801FE9D291F0000F04BF01460020B1FA8F
:1002B00081F308BF2033A3F10B03B3F120020CDA62
:1002C0000C3208DD02F1140CC2F10C0201FA0CF040
:1002D00021FA02F10CE002F11402D8BFC2F1200CA5
:1002E00001FA02F120FA0CFCDCBF41EA0C0190405B
:1002F000E41AA2BF01EB0451294330BD6FEA0404A4
:100300001F3C1CDA0C340EDC04F11404C4F120028E
:1003100020FA04F001FA02F340EA030021FA04F3A0
:1003200045EA030130BDC4F10C04C4F1200220FAF7
:1003300002F001FA04F340EA0300294630BD21FA35
:1003400004F0294630BD94F0000F83F4801306BFFB
:1003500081F480110134013D4EE77FEA645C18BFEF
:100360007FEA655C29D094EA050F08BF90EA020F86
:1003700005D054EA000C04BF1946104630BD91EA7E
:10038000030F1EBF0021002030BD5FEA545C05D181
:100390004000494128BF41F0004130BD14F58004C0
:1003A0003CBF01F5801130BD01F0004545F0FE4134
:1003B00041F470014FF0000030BD7FEA645C1ABF69
:1003C000194610467FEA655C1CBF0B46024650EAA0
:1003D000013406BF52EA033591EA030F41F40021CC
:1003E00030BD00BF90F0000F04BF0021704730B552
:1003F0004FF4806404F132044FF000054FF0000127
:1004000050E700BF90F0000F04BF0021704730B5E7
:100410004FF4806404F1320410F0004548BF4042BC
:100420004FF000013EE700BF42004FEAE2014FEA11
:1004300031014FEA02701FBF12F07F4393F07F4FEC
:1004400081F06051704732F07F4208BF704793F0EF
:100450007F4F04BF41F40021704730B54FF4607402
:1004600001F0004521F000411CE700BF50EA010205
:1004700008BF704730B54FF000050AE050EA0102AE
:1004800008BF704730B511F0004502D5404261EB1E
:1004900041014FF4806404F132045FEA915C3FF45F
:1004A000D8AE4FF003025FEADC0C18BF03325FEAFC
:1004B000DC0C18BF033202EBDC02C2F1200300FAAD
:1004C00003FC20FA02F001FA03FE40EA0E0021FAD2
:1004D00002F11444BDE600BF70B54FF0FF0C4CF4C0
:1004E000E06C1CEA11541DBF1CEA135594EA0C0F72
:1004F00095EA0C0F00F0DEF82C4481EA030621EAAD
:100500004C5123EA4C5350EA013518BF52EA0335E7
:1005100041F4801143F4801338D0A0FB02CE4FF099
:100520000005E1FB02E506F00042E0FB03E54FF0C9
:100530000006E1FB03569CF0000F18BF4EF0010EC1
:10054000A4F1FF04B6F5007F64F5407404D25FEABD
:100550004E0E6D4146EB060642EAC62141EA555170
:100560004FEAC52040EA5E504FEACE2EB4F1FD0CB2
:1005700088BFBCF5E06F1ED8BEF1004F08BF5FEA30
:10058000500E50F1000041EB045170BD06F00046E2
:1005900046EA010140EA020081EA0301B4EB5C048F
:1005A000C2BFD4EB0C0541EA045170BD41F4801187
:1005B0004FF0000E013C00F3AB8014F1360FDEBFAC
:1005C000002001F0004170BDC4F10004203C35DA88
:1005D0000C341BDC04F11404C4F1200500FA05F30B
:1005E00020FA04F001FA05F240EA020001F00042AC
:1005F00021F0004110EBD37021FA04F642EB060122
:100600005EEA430E08BF20EAD37070BDC4F10C044B
:10061000C4F1200500FA04F320FA05F001FA04F20F
:1006200040EA020001F0004110EBD37041F10001FB
:100630005EEA430E08BF20EAD37070BDC4F1200506
:1006400000FA05F24EEA020E20FA04F301FA05F26E
:1006500043EA020321FA04F001F0004121FA04F216
:1006600020EA020000EBD3705EEA430E08BF20EAE6
:10067000D37070BD94F0000F0FD101F00046400020
:1006800041EB010111F4801F08BF013CF7D041EAA2
:10069000060195F0000F18BF704703F000465200A6
:1006A00043EB030313F4801F08BF013DF7D043EA77
:1006B0000603704794EA0C0F0CEA135518BF95EA2D
:1006C0000C0F0CD050EA410618BF52EA4306D1D1B4
:1006D00081EA030101F000414FF0000070BD50EAD3
:1006E000410606BF1046194652EA430619D094EA5D
:1006F0000C0F02D150EA013613D195EA0C0F05D147
:1007000052EA03361CBF104619460AD181EA03019A
:1007100001F0004141F0FE4141F470014FF0000052
:1007200070BD41F0FE4141F4780170BD70B54FF0ED
:10073000FF0C4CF4E06C1CEA11541DBF1CEA13556D
:1007400094EA0C0F95EA0C0F00F0A7F8A4EB05044F
:1007500081EA030E52EA03354FEA013100F0888046
:100760004FEA03334FF0805545EA131343EA12630F
:100770004FEA022245EA111545EA10654FEA0026C4
:100780000EF000419D4208BF964244F1FD0404F57D
:10079000407402D25B084FEA3202B61A65EB0305D9
:1007A0005B084FEA32024FF480104FF4002CB6EB96
:1007B000020E75EB030E22BFB61A754640EA0C0016
:1007C0005B084FEA3202B6EB020E75EB030E22BF56
:1007D000B61A754640EA5C005B084FEA3202B6EB97
:1007E000020E75EB030E22BFB61A754640EA9C0056
:1007F0005B084FEA3202B6EB020E75EB030E22BF26
:10080000B61A754640EADC0055EA060E18D04FEAE3
:10081000051545EA16754FEA06164FEAC30343EA83
:1008200052734FEAC2025FEA1C1CC0D111F4801F50
:100830000BD141EA00014FF000004FF0004CB6E749
:1008400011F4801F04BF01430020B4F1FD0C88BFE8
:10085000BCF5E06F3FF6AFAEB5EB030C04BFB6EBF3
:10086000020C5FEA500C50F1000041EB045170BDE6
:100870000EF0004E4EEA113114EB5C04C2BFD4EB13
:100880000C0541EA045170BD41F480114FF0000E97
:10089000013C90E645EA060E8DE60CEA135594EA13
:1008A0000C0F08BF95EA0C0F3FF43BAF94EA0C0F16
:1008B0000AD150EA01347FF434AF95EA0C0F7FF48B
:1008C00025AF104619462CE795EA0C0F06D152EADF
:1008D00003353FF4FDAE1046194622E750EA4106C3
:1008E00018BF52EA43067FF4C5AE50EA41047FF4D4
:1008F0000DAF52EA43057FF4EBAE12E74FF0FF3C39
:1009000006E000BF4FF0010C02E000BF4FF0010C09
:100910004DF804CD4FEA410C7FEA6C5C4FEA430C82
:1009200018BF7FEA6C5C1BD001B050EA410C0CBFD1
:1009300052EA430C91EA030F02BF90EA020F002033
:10094000704710F1000F91EA030F58BF994208BF9A
:1009500090422CBFD8176FEAE37040F00100704757
:100960004FEA410C7FEA6C5C02D150EA013C07D1AE
:100970004FEA430C7FEA6C5CD6D152EA033CD3D0F9
:100980005DF8040B704700BF8446104662468C46F3
:100990001946634600E000BF01B5FFF7B7FF002826
:1009A00048BF10F1000F01BD4DF808EDFFF7F4FF4F
:1009B0000CBF012000205DF808FB00BF4DF808EDDA
:1009C000FFF7EAFF34BF012000205DF808FB00BFFD
:1009D0004DF808EDFFF7E0FF94BF012000205DF81F
:1009E00008FB00BF4DF808EDFFF7CEFF94BF0120D4
:1009F00000205DF808FB00BF4DF808EDFFF7C4FFCD
:100A000034BF012000205DF808FB00BF4FEA410C15
:100A10007FEA6C5C02D150EA013C0AD14FEA430CF8
:100A20007FEA6C5C02D152EA033C02D14FF0000035
:100A300070474FF0010070474FEA410212F5001273
:100A400015D211D56FF47873B3EB625212D94FEA15
:100A5000C12343F0004343EA505311F0004F23FAFF
:100A600002F018BF404270474FF00000704750EA54
:100A7000013005D111F0004008BF6FF00040704711
:100A80004FF00000704700BF4A0011D212F500126B
:100A900011D20DD56FF47873B3EB62520ED44FEAD6
:100AA000C12343F0004343EA505323FA02F0704756
:100AB0004FF00000704750EA013002D14FF0FF3094
:100AC00070474FF0000070474FEA4102B2F1E04337
:100AD00024BFB3F5001CDCF1FE5C0DD901F0004C25
:100AE0004FEAC0024CEA5070B2F1004F40EB830075
:100AF00008BF20F00100704711F0804F21D113F1A1
:100B00003872BCBF01F00040704741F480114FEAD9
:100B10005252C2F11802C2F1200C10FA0CF320FA62
:100B200002F018BF40F001004FEAC1234FEAD3237F
:100B300003FA0CFC40EA0C0023FA02F34FEA4303E9
:100B4000CCE77FEA625307D150EA01331EBF4FF072
:100B5000FE4040F44000704701F0004040F0FE408D
:100B600040F40000704700BF38B50022002304465F
:100B70000D46FFF723FF28B920462946BDE8384037
:100B800000F00AB8204605F1004100F005F84042A7
:100B900061EB410138BD00BFD0B500220B4B0646CA
:100BA0000F46FFF799FCFFF76FFF0446FFF71AFCAB
:100BB0000022074BFFF790FC02460B4630463946B1
:100BC000FFF7D2FAFFF760FF2146D0BD0000F03DED
:100BD0000000F04180B500AF00220221024802F07F
:100BE000BFF900BF80BD00BF000C014080B500AF61
:100BF00001220221024802F0B3F900BF80BD00BF0C
:100C0000000C014080B500AF01220121024802F032
:100C1000A7F900BF80BD00BF000C014080B500AF48
:100C200000220121024802F09BF900BF80BD00BFF5
:100C3000000C014080B584B000AF03460A46FB714A
:100C40001346BB71FB7943F02003DBB23B73BB79E6
:100C50007B73FFF7BFFF07F10C014FF47A73022299
:100C6000044802F0DFFEFFF7C1FF00BF1037BD46AA
:100C700080BD00BFA402002080B586B000AF03464F
:100C8000B9607A60FB73FB7B43F02003DBB23B75FA
:100C9000FFF7A0FF07F1140164230122084802F0C6
:100CA000C1FE7B689AB24FF47A73B968044802F0C7
:100CB000B9FEFFF79BFF00BF1837BD4680BD00BFE0
:100CC000A402002080B584B000AF0346FB7100236E
:100CD000FB73FFF77FFFF91D64230122084802F030
:100CE000A1FE07F10F0164230122054802F0DEFF97
:100CF000FFF77CFFFB7B18461037BD4680BD00BF69
:100D0000A402002080B582B000AF0346FB71FFF75C
:100D100061FFF91D64230122044802F083FEFFF7FE
:100D200065FF00BF0837BD4680BD00BFA40200209C
:100D300080B588B000AF0346FB71FB79072B04D167
:100D400000210720FFF776FF90E0FB79172B04D1F5
:100D500011211720FFF76EFF88E008210020FFF720
:100D600069FF3F210120FFF765FF03210220FFF704
:100D700061FF03210320FFF75DFF03210420FFF73C
:100D800059FF02210520FFF755FF06210620FFF736
:100D900051FF00210720FFF74DFF00210820FFF73A
:100DA00049FF00210920FFF745FF324A07F11803E8
:100DB00092E8030018600433197007F11803052244
:100DC00019460A20FFF758FF2B4A07F1100392E853
:100DD000030018600433197007F110030522194647
:100DE0000B20FFF749FFC3210C20FFF723FFC4218D
:100DF0000D20FFF71FFFC5210E20FFF71BFFC621A7
:100E00000F20FFF717FF1B4A07F1080392E80300C2
:100E100018600433197007F10803052219461020E1
:100E2000FFF72AFF00211120FFF704FF0021122005
:100E3000FFF700FF00211320FFF7FCFE0021142024
:100E4000FFF7F8FE00211520FFF7F4FE0021162021
:100E5000FFF7F0FE11211720FFF7ECFE00211C2008
:100E6000FFF7E8FE00211D20FFF7E4FE00BF20375A
:100E7000BD4680BD689B0008709B000880B500AF30
:100E8000FFF7CCFE0020FFF753FF00210020FFF703
:100E9000D1FE00210120FFF7CDFE00210220FFF747
:100EA000C9FE03210320FFF7C5FE00210420FFF740
:100EB000C1FE00210520FFF7BDFE06210620FFF739
:100EC000B9FEFFF79FFE00BF80BD80B584B000AFC4
:100ED00078600B46FB70FFF7A1FEFB7819460520F2
:100EE000FFF7A8FE052279681020FFF7C5FE002055
:100EF000FFF7E8FE0346FB73FB7B43F00203FB7343
:100F0000FB7B19460020FFF795FEFFF77BFE00BF35
:100F10001037BD4680BD000080B584B000AF78605A
:100F20000023BB73FFF756FEA023BB7307F10E012E
:100F300064230122164802F075FD4FF47A732022D3
:100F40007968134802F06EFDFFF750FE012000F0B3
:100F50001FFF1720FFF7B6FE0346FB73FB7B03F072
:100F60001003002B0FD0FB7B03F00803002B0AD1EA
:100F7000E123BB73BB7B1846FFF7C4FE1720FFF7C6
:100F8000D7FE012300E0002318461037BD4680BD80
:100F9000A402002080B582B000AF0320FFF792FECC
:100FA0000346FB71FB79032B0CBF01230023DBB24B
:100FB00018460837BD4680BD80B584B000AF3B1DE4
:100FC00000221A605A609A602E4B2F4A1A602D4BED
:100FD0004FF480729A602B4B01221A73294B002226
:100FE0001A75284B4FF46022DA61264B00225A60B2
:100FF000244B04221A61234800F0EEFE0346002B26
:1010000001D000F01DFA00237B600123BB600723A1
:10101000FB603B1D19461B4801F0B0F80346002B4E
:1010200001D000F00DFA01237B600223BB603B1D61
:101030001946144801F0A2F80346002B01D000F035
:10104000FFF902237B600323BB603B1D19460D485B
:1010500001F094F80346002B01D000F0F1F90323CE
:101060007B600423BB603B1D1946064801F086F8EF
:101070000346002B01D000F0E3F900BF1037BD4656
:1010800080BD00BFF00100200024014080B588B081
:1010900000AF786007F1100300221A605A609A606E
:1010A000DA607B681B68294A93424AD1284B9B69C6
:1010B000274A43F400739361254B9B6903F4007343
:1010C000FB60FB68224B9B69214A43F00403936158
:1010D0001F4B9B6903F00403BB60BB680F233B619C
:1010E00003237B6107F1100319461A4801F0B4FD90
:1010F000194B1A4A1A60184B00225A60164B0022EC
:101100009A60154B8022DA60134B4FF400721A611B
:10111000114B4FF400625A610F4B20229A610E4B23
:101120004FF48052DA610C4801F030FB0346002B8B
:1011300001D000F085F97B68074A1A62064A7B688D
:10114000536200BF2037BD4680BD00BF0024014070
:101150000010024000080140200200200800024068
:1011600080B582B000AF0C4B5B690B4A43F00103C2
:101170005361094B5B6903F001037B607B680022CC
:1011800000210B2001F0CBFA0B2001F0E4FA00BFA4
:101190000837BD4680BD00BF0010024080B588B052
:1011A00000AF07F1100300221A605A609A60DA60FB
:1011B0002D4B9B692C4A43F0100393612A4B9B698A
:1011C00003F01003FB60FB68274B9B69264A43F042
:1011D00020039361244B9B6903F02003BB60BB6831
:1011E000214B9B69204A43F0040393611E4B9B698A
:1011F00003F004037B607B681B4B9B691A4A43F036
:1012000008039361184B9B6903F008033B603B683C
:1012100000224FF40051154801F0A2FE00220321E4
:10122000134801F09DFE4FF400533B6101237B61A5
:101230000223BB610123FB6107F1100319460B4830
:1012400001F00AFD03233B6101237B610023BB61A5
:101250000323FB6107F110031946054801F0FCFC6C
:1012600000BF2037BD4680BD001002400010014085
:10127000000C014080B483B000AF78607B681846F2
:101280000C37BD4680BC704790B583B000AF00F00E
:101290001DFD00F055F8FFF781FFFFF761FFFFF735
:1012A0008BFE00F077FC00F0D5F900F0EFFB00F0CA
:1012B0009DFB04221B491C4800F066FE1B4803F0FE
:1012C0005FFA1B4803F012FA01226421194800F06A
:1012D00062F94FF4017004F0B1F803461C46204651
:1012E00000F0D2F8144B1C60144B55221A70134BAB
:1012F000AA225A70114B07229A700023FB71002317
:10130000BB71FA790D4BDA70BA790C4B1A71012165
:10131000084800F05BF90346002BF8D00748FFF7B8
:10132000FBFDF4E764020020F001002048030020E8
:1013300000030020780200207402002084020020B4
:1013400080B594B000AF07F1280328220021184689
:1013500005F07EF907F1140300221A605A609A60C2
:10136000DA601A613B1D00221A605A609A60DA60E6
:101370000123BB624FF48033FB6200233B630123F4
:10138000BB6302237B644FF48033BB644FF4E013F0
:10139000FB6407F12803184601F0FAFD0346002B11
:1013A00014BF01230023DBB2002B01D000F048F86A
:1013B0000F237B610223BB610023FB614FF4806339
:1013C0003B624FF4A0637B6207F1140302211846CD
:1013D00002F060F80346002B14BF01230023DBB2A8
:1013E000002B01D000F02CF802237B600023FB606F
:1013F0003B1D184602F0DCF90346002B14BF012305
:101400000023DBB2002B01D000F01AF800BF5037E8
:10141000BD4680BD80B582B000AF78607B681A6839
:10142000054B1B689A4202D1044800F0E9F800BF5E
:101430000837BD4680BD00BF480300207802002069
:1014400080B400AF72B600BF00BFFDE780B500AF4B
:10145000024800F087F800BF80BD00BF780200207E
:1014600080B500AF0248FFF705FF00BF80BD00BF99
:101470007802002080B500AFFFF7E8FF80BD80B59F
:1014800000AFFFF7EDFF80BD80B584B000AF78609E
:101490007B68002283F800227B68002283F8012207
:1014A0007B68002283F802227B68002283F80322F3
:1014B0007B684FF480720021184605F0C9F87B68FC
:1014C00003F580734FF480720021184605F0C0F8D0
:1014D000FFF7D4FC0C4A07F1080392E803001860F8
:1014E0000433197007F1080369211846FFF7EDFC72
:1014F000FFF750FD03461946044804F09DFF7B6842
:1015000018461037BD4680BD949B0008789B0008A4
:1015100080B584B000AF78607B68DBB2FB7307F105
:101520000F014FF0FF330122034803F01BFD00239E
:1015300018461037BD4680BD9003002080B582B0AC
:1015400000AF0023FB71F91D4FF0FF330122044867
:1015500003F093FDFB7918460837BD4680BD00BFF8
:101560009003002080B483B000AF78607B680022D5
:101570001A607B6800225A607B6800221A727B68BE
:1015800000225A727B6800229A727B6818460C37D8
:10159000BD4680BC704780B485B000AFF860B960CC
:1015A0001346FB71FB68BA681A60FB68BA685A6038
:1015B000FB68FA791A72FB6800225A72FB680122F2
:1015C0009A7200BF1437BD4680BC704780B485B0A6
:1015D00000AF78600B46FB700023FB737B685B7A7F
:1015E000002B07D0FB78002B02D07B6800225A72B8
:1015F0000123FB73FB7B18461437BD4680BC704744
:1016000080B483B000AF78607B689B7A002B1CD0DD
:101610007B685B685A1E7B685A607B685B68002B3E
:101620000CBF01230023DBB2002B0ED07B6801220C
:101630005A727B681B7A002B04D07B681A687B681F
:101640005A6002E07B6800229A7200BF0C37BD46E8
:1016500080BC704780B500AF174B184A1A60164B14
:101660004FF482725A60144B00229A60124B00228F
:10167000DA60114B00221A610F4B00225A610E4BA7
:101680004FF400729A610C4B2022DA610A4B00225F
:101690001A62094B00225A62074B00229A62064BDB
:1016A0000A22DA62044802F039F90346002B01D01D
:1016B000FFF7C6FE00BF80BDA4020020003001403D
:1016C00080B588B000AF786007F1100300221A607F
:1016D0005A609A60DA607B681B681F4A934237D170
:1016E0001E4B9B691D4A43F4805393611B4B9B69BE
:1016F00003F48053FB60FB68184B9B69174A43F067
:1017000004039361154B9B6903F00403BB60BB6842
:10171000A0233B6102237B610323FB6107F11003DC
:1017200019460F4801F098FA40233B6100237B6182
:101730000023BB6107F110031946094801F08CFA38
:1017400000220021232000F0EAFF232001F003F80B
:1017500000BF2037BD4680BD003001400010024070
:101760000008014080B485B000AF154B9B69144A56
:1017700043F001039361124B9B6903F00103BB60CB
:10178000BB680F4BDB690E4A43F08053D3610C4BAF
:10179000DB6903F080537B607B680A4B5B68FB600E
:1017A000FB6823F0E063FB60FB6843F00073FB60C1
:1017B000044AFB68536000BF1437BD4680BC7047C5
:1017C000001002400000014080B400AF00BFFDE700
:1017D00080B400AF00BFFDE780B400AF00BFFDE7FD
:1017E00080B400AF00BFFDE780B400AF00BFFDE7ED
:1017F00080B400AF00BFBD4680BC704780B400AF6E
:1018000000BFBD4680BC704780B400AF00BFBD467E
:1018100080BC704780B500AF00F09EFA00BF80BD6D
:1018200080B500AF024801F0E3F800BF80BD00BF03
:101830002002002080B500AF024802F0F3FF00BF95
:1018400080BD00BF4803002080B500AF024802F011
:10185000EFFC00BF80BD00BFA402002080B400AF39
:1018600001231846BD4680BC704780B582B000AFEA
:101870007860396004F092FF034616221A604FF038
:10188000FF3318460837BD4680BD80B582B000AF33
:1018900078604FF0FF317868FFF7E7FF00BFFDE7A2
:1018A00080B586B000AFF860B9607A6000237B61D4
:1018B0000AE0FFF743FE0146BB685A1CBA60CAB291
:1018C0001A707B6901337B617A697B689A42F0DB2D
:1018D0007B6818461837BD4680BD80B586B000AF1E
:1018E000F860B9607A6000237B6109E0BB685A1C2C
:1018F000BA601B781846FFF70BFE7B6901337B61EA
:101900007A697B689A42F1DB7B6818461837BD46D6
:1019100080BD80B483B000AF78604FF0FF331846CD
:101920000C37BD4680BC704780B483B000AF786090
:1019300039603B684FF400525A60002318460C3758
:10194000BD4680BC704780B483B000AF786001238F
:1019500018460C37BD4680BC704780B485B000AFD8
:10196000F860B9607A60002318461437BD4680BC21
:101970007047000080B586B000AF7860144A154B00
:10198000D31A7B617B693B61134B1B68002B02D12F
:10199000114B124A1A60104B1A687B6813443A695B
:1019A0009A4207D204F0FAFE03460C221A604FF066
:1019B000FF3309E0084B1B68FB60074B1A687B6824
:1019C0001344054A1360FB6818461837BD4680BDAE
:1019D0000050002000040000FC0200203005002020
:1019E00080B400AF00BFBD4680BC704780B586B0F4
:1019F00000AF07F1080300221A605A609A60DA60AB
:101A00003B4600221A605A601E4B1F4A1A601D4B4B
:101A100047225A601B4B00229A601A4B4FF6FF7206
:101A2000DA60184B00221A61164B00225A61154BDE
:101A300000229A61134802F00AFE0346002B01D0EF
:101A4000FFF7FEFC4FF48053BB6007F10803194613
:101A50000C4802F0D7FF0346002B01D0FFF7F0FC43
:101A600000233B6000237B603B461946054803F09A
:101A7000B9F90346002B01D0FFF7E2FC00BF18378D
:101A8000BD4680BD00030020002C014080B586B01B
:101A900000AF07F1080300221A605A609A60DA600A
:101AA0003B4600221A605A601D4B4FF080421A607C
:101AB0001B4B47225A601A4B00229A60184B40F287
:101AC000E732DA60164B00221A61154B00229A6148
:101AD000134802F0BCFD0346002B01D0FFF7B0FC19
:101AE0004FF48053BB6007F1080319460C4802F01D
:101AF00089FF0346002B01D0FFF7A2FC00233B60C7
:101B000000237B603B461946054803F06BF903460A
:101B1000002B01D0FFF794FC00BF1837BD4680BDF5
:101B20004803002080B584B000AF78607B681B68F4
:101B3000164A93420CD1164B9B69154A43F4006335
:101B40009361134B9B6903F40063FB60FB6818E02F
:101B50007B681B68B3F1804F13D10D4BDB690C4AD6
:101B600043F00103D3610A4BDB6903F00103BB605F
:101B7000BB68002200211C2000F0D1FD1C2000F0D9
:101B8000EAFD00BF1037BD4680BD00BF002C0140FC
:101B90000010024080B500AF114B124A1A60104B82
:101BA0004FF4E1325A600E4B00229A600C4B002237
:101BB000DA600B4B00221A61094B0C225A61084B68
:101BC00000229A61064B0022DA61054803F07AF997
:101BD0000346002B01D0FFF733FC00BF80BD00BFE0
:101BE000900300200038014080B588B000AF7860D5
:101BF00007F1100300221A605A609A60DA607B686D
:101C00001B681C4A934231D11B4B9B691A4A43F40F
:101C100080439361184B9B6903F48043FB60FB682E
:101C2000154B9B69144A43F004039361124B9B6963
:101C300003F00403BB60BB684FF400733B610223F5
:101C40007B610323FB6107F1100319460B4801F088
:101C500003F84FF480633B6100237B610023BB6189
:101C600007F110031946054800F0F6FF00BF2037C2
:101C7000BD4680BD00380140001002400008014010
:101C8000FFF7AEFE0B480C490C4A002302E0D45883
:101C9000C4500433C4188C42F9D3094A094C0023B8
:101CA00001E013600432A242FBD304F07DFDFFF794
:101CB000EBFA704700000020D401002034A0000897
:101CC000D40100202C050020FEE7000080B500AF05
:101CD000084B1B68074A43F010031360032000F011
:101CE00013FD0F2000F008F8FFF73CFD0023184615
:101CF00080BD00BF0020024080B582B000AF786098
:101D0000124B1A68124B1B7819464FF47A73B3FBC7
:101D1000F1F3B2FBF3F3184600F02BFD0346002B62
:101D200001D001230EE07B680F2B0AD800227968CE
:101D30004FF0FF3000F0F3FC064A7B68136000238D
:101D400000E0012318460837BD4680BD0000002092
:101D5000080000200400002080B400AF054B1B7871
:101D60001A46054B1B681344034A136000BFBD4667
:101D700080BC704708000020D803002080B400AF6A
:101D8000024B1B681846BD4680BC7047D803002034
:101D900080B584B000AF7860FFF7F0FFB8607B6873
:101DA000FB60FB68B3F1FF3F05D00A4B1B781A4676
:101DB000FB681344FB6000BFFFF7E0FF0246BB680F
:101DC000D31AFA689A42F7D800BF00BF1037BD4651
:101DD00080BD00BF0800002080B586B000AF7860ED
:101DE0000023FB7500233B610023BB600023FB60E5
:101DF0007B68002B01D10123BEE07B689B68002B30
:101E00007B689B6A002B09D17B680022DA627B68C1
:101E1000002283F824207868FFF738F9786800F00A
:101E2000FFFA0346FB757B689B6A03F01003002BE7
:101E300040F09980FB7D002B40F095807B689B6A89
:101E400023F4885323F0020343F002027B689A6272
:101E50007B685A687B68DB691A437B681B7B5B0085
:101E60001343BA681343BB607B689B68B3F5807FFC
:101E700003D07B689B68012B02D14FF4807300E094
:101E800000233A6913433B617B681B7D012B19D109
:101E90007B681B7B002B09D17B689B69013B5A0344
:101EA0003B69134343F400633B610BE07B689B6A2F
:101EB00043F020027B689A627B68DB6A43F0010290
:101EC0007B68DA627B681B685B6823F469417B6826
:101ED0001B683A690A435A607B681B689A68284BFA
:101EE00013407A681268B9680B4393607B689B68FB
:101EF000B3F5807F03D07B689B68012B04D17B689E
:101F00001B69013B1B05FB607B681B68DB6A23F4D4
:101F100070017B681B68FA680A43DA627B681B6899
:101F20009A68184B1340BA689A420BD17B6800221A
:101F3000DA627B689B6A23F0030343F001027B684B
:101F40009A6218E07B689B6A23F0120343F0100248
:101F50007B689A627B68DB6A43F001027B68DA6225
:101F60000123FB7507E07B689B6A43F010027B68E6
:101F70009A620123FB75FB7D18461837BD4680BD6C
:101F8000FDF7E1FFFE0E1FFF80B586B000AFF860E1
:101F9000B9607A600023FB75FB681B68644A934252
:101FA00004D0FB681B68634A934206D1604B5B68B0
:101FB00003F47023002B40F0B380FB6893F82430C7
:101FC000012B01D10223AEE0FB68012283F824201B
:101FD000F86800F0CBF90346FB75FB7D002B40F061
:101FE0009A80FB689B6A23F4706323F0010343F437
:101FF0008072FB689A62FB681B684E4A934205D167
:102000004B4B5B6803F47023002B15D1FB689B6A74
:1020100023F48012FB689A62FB681B685B6803F418
:102020008063002B26D0FB689B6A23F4405343F463
:102030008052FB689A621DE0FB689B6A43F4801241
:10204000FB689A62FB681B68394A934204D0FB68BC
:102050001B68384A93420DD1354B5B6803F48063AB
:10206000002B07D0FB689B6A23F4405343F4805253
:10207000FB689A62FB689B6A03F48053002B06D0CE
:10208000FB68DB6A23F00602FB68DA6202E0FB68A9
:102090000022DA62FB68002283F82420FB681B6AB6
:1020A000254A9A62FB681B6A244ADA62FB681B6A4B
:1020B000234A1A63FB681B686FF002021A60FB6810
:1020C0001B689A68FB681B6842F480729A60FB6820
:1020D000186AFB681B684C331946BA687B6800F0C5
:1020E000AFFBFB681B689B6803F46023B3F5602FAC
:1020F00008D1FB681B689A68FB681B6842F4A00261
:102100009A600FE0FB681B689A68FB681B6842F4E2
:1021100080129A6006E0FB68002283F8242001E028
:102120000123FB75FB7D18461837BD4680BD00BFF7
:102130000024014000280140A32400081F250008B6
:102140003B25000880B483B000AF786000BF0C3737
:10215000BD4680BC704780B483B000AF786000BFDC
:102160000C37BD4680BC704780B483B000AF786048
:1021700000BF0C37BD4680BC7047000080B485B0FE
:1021800000AF786039600023FB730023BB607B687D
:1021900093F82430012B01D10223DCE07B6801227B
:1021A00083F824203B685B68062B1CD87B681B687F
:1021B000596B3B685A6813469B001344053B1F222A
:1021C00002FA03F3DB4319403B6818683B685A681E
:1021D00013469B001344053B00FA03F27B681B681F
:1021E0000A435A633CE03B685B680C2B1CD87B6855
:1021F0001B68196B3B685A6813469B001344233BCA
:102200001F2202FA03F3DB4319403B6818683B685E
:102210005A6813469B001344233B00FA03F27B6881
:102220001B680A431A631BE07B681B68D96A3B681A
:102230005A6813469B001344413B1F2202FA03F3E2
:10224000DB4319403B6818683B685A6813469B009B
:102250001344413B00FA03F27B681B680A43DA62CD
:102260003B681B68092B1CD97B681B68D9683B68D5
:102270001A6813465B0013441E3B072202FA03F35D
:10228000DB4319403B6898683B681A6813465B005B
:1022900013441E3B00FA03F27B681B680A43DA60B2
:1022A00019E07B681B6819693B681A6813465B0074
:1022B0001344072202FA03F3DB4319403B68986892
:1022C0003B681A6813465B00134400FA03F27B680C
:1022D0001B680A431A613B681B68102B03D03B68DC
:1022E0001B68112B32D17B681B681D4A934225D194
:1022F0007B681B689B6803F40003002B26D17B6876
:102300001B689A687B681B6842F400029A603B680D
:102310001B68102B1AD1134B1B68134AA2FB032313
:102320009A0C13469B0013445B00BB6002E0BB6841
:10233000013BBB60BB68002BF9D107E07B689B6A5F
:1023400043F020027B689A620123FB737B680022C2
:1023500083F82420FB7B18461437BD4680BC7047A9
:10236000002401400000002083DE1B4380B584B0C0
:1023700000AF78600023FB600023BB607B681B68B4
:102380009B6803F00103012B40D07B681B689A68AF
:102390007B681B6842F001029A601F4B1B681F4A52
:1023A000A2FB03239B0CBB6002E0BB68013BBB604C
:1023B000BB68002BF9D1FFF7E1FCF8601FE0FFF7E5
:1023C000DDFC0246FB68D31A022B18D97B681B6818
:1023D0009B6803F00103012B11D07B689B6A43F0DB
:1023E00010027B689A627B68DB6A43F001027B68BB
:1023F000DA627B68002283F82420012307E07B68EF
:102400001B689B6803F00103012BD8D100231846F9
:102410001037BD4680BD00BF0000002083DE1B4397
:1024200080B584B000AF78600023FB607B681B68D8
:102430009B6803F00103012B2ED17B681B689A680F
:102440007B681B6822F001029A60FFF797FCF86036
:102450001BE0FFF793FC0246FB68D31A022B14D94A
:102460007B681B689B6803F00103012B0DD17B681F
:102470009B6A43F010027B689A627B68DB6A43F0D8
:1024800001027B68DA62012307E07B681B689B68B6
:1024900003F00103012BDCD0002318461037BD46A2
:1024A00080BD80B584B000AF78607B685B6AFB60FC
:1024B000FB689B6A03F05003002B27D1FB689B6AE3
:1024C00043F40072FB689A62FB681B689B6803F424
:1024D0006023B3F5602F15D1FB681B7B002B11D156
:1024E000FB689B6A23F48072FB689A62FB689B6AB4
:1024F00003F48053002B05D1FB689B6A43F0010273
:10250000FB689A62F868FFF71DFE04E0FB681B6A2F
:102510001B6B7868984700BF1037BD4680BD80B5FB
:1025200084B000AF78607B685B6AFB60F868FFF797
:1025300012FE00BF1037BD4680BD80B584B000AF2D
:1025400078607B685B6AFB60FB689B6A43F04002D3
:10255000FB689A62FB68DB6A43F00402FB68DA629C
:10256000F868FFF701FE00BF1037BD4680BD0000D0
:1025700080B485B000AF78607B6803F00703FB6030
:102580000C4BDB68BB60BA684FF6FF031340BB60BF
:10259000FB681A02BB68134343F0BF6343F4003384
:1025A000BB60044ABB68D36000BF1437BD4680BC23
:1025B000704700BF00ED00E080B400AF044BDB6863
:1025C0001B0A03F007031846BD4680BC704700BFD6
:1025D00000ED00E080B483B000AF0346FB7197F9D3
:1025E0000730002B0BDBFB7903F01F02064997F93C
:1025F00007305B09012000FA02F241F8232000BFF6
:102600000C37BD4680BC704700E100E080B483B069
:1026100000AF03463960FB7197F90730002B0ADBE6
:102620003B68DAB20C4997F907301201D2B20B4479
:1026300083F800230AE03B68DAB20849FB7903F02B
:102640000F03043B1201D2B20B441A7600BF0C37C1
:10265000BD4680BC704700BF00E100E000ED00E037
:1026600080B489B000AFF860B9607A60FB6803F0AD
:102670000703FB61FB69C3F10703042B28BF042395
:10268000BB61FB690433062B02D9FB69033B00E005
:1026900000237B614FF0FF32BB6902FA03F3DA4398
:1026A000BB681A407B699A404FF0FF317B6901FAA1
:1026B00003F3D9437B680B40134318462437BD46C8
:1026C00080BC704780B582B000AF78607B68013B0A
:1026D000B3F1807F01D301230FE00A4A7B68013BFD
:1026E00053600F214FF0FF30FFF790FF054B0022A2
:1026F0009A60044B07221A60002318460837BD462B
:1027000080BD00BF10E000E080B582B000AF78600F
:102710007868FFF72DFF00BF0837BD4680BD80B544
:1027200086B000AF0346B9607A60FB7300237B611B
:10273000FFF742FF78617A68B9687869FFF790FF20
:10274000024697F90F3011461846FFF75FFF00BFAA
:102750001837BD4680BD80B582B000AF0346FB711F
:1027600097F907301846FFF735FF00BF0837BD4619
:1027700080BD80B582B000AF78607868FFF7A2FFB7
:10278000034618460837BD4680BD000080B485B0BA
:1027900000AF78600023FB607B68002B01D1012330
:1027A00043E07B681B681A46224B1344224AA2FB73
:1027B00003231B099A007B681A647B681F4ADA634B
:1027C0007B68022283F821207B681B681B68FB6002
:1027D000FB6823F47F5323F03003FB607B685A6867
:1027E0007B689B681A437B68DB681A437B681B69BC
:1027F0001A437B685B691A437B689B691A437B6851
:10280000DB691343FA681343FB607B681B68FA6853
:102810001A607B6800229A637B68012283F821207A
:102820007B68002283F82020002318461437BD4619
:1028300080BC7047F8FFFDBFCDCCCCCC000002407F
:1028400080B586B000AFF860B9607A603B60002365
:10285000FB75FB6893F82030012B01D102234BE07C
:10286000FB68012283F82020FB6893F82130DBB25B
:10287000012B3AD1FB68022283F82120FB68002259
:102880009A63FB681B681A68FB681B6822F00102E8
:102890001A603B687A68B968F86800F0AFF9FB68BD
:1028A000DB6A002B08D0FB681B681A68FB681B6892
:1028B00042F00E021A600FE0FB681B681A68FB68A2
:1028C0001B6822F004021A60FB681B681A68FB6828
:1028D0001B6842F00A021A60FB681B681A68FB68F2
:1028E0001B6842F001021A6005E0FB68002283F8D1
:1028F00020200223FB75FB7D18461837BD4680BD9E
:1029000080B584B000AF78600023FB737B6893F8D8
:102910002130DBB2022B05D07B6804229A630123AD
:10292000FB7351E07B681B681A687B681B6822F0A8
:102930000E021A607B681B681A687B681B6822F0AD
:1029400001021A607B681B68224A934229D07B6887
:102950001B68214A934222D07B681B681F4A93421E
:102960001AD07B681B681E4A934212D07B681B6892
:102970001C4A93420AD07B681B681B4A934202D1CF
:102980004FF480130EE04FF080730BE04FF4803370
:1029900008E04FF4805305E04FF4807302E0102309
:1029A00000E00123114A53607B68012283F8212053
:1029B0007B68002283F820207B685B6B002B03D0B0
:1029C0007B685B6B78689847FB7B18461037BD4681
:1029D00080BD00BF080002401C00024030000240E1
:1029E00044000240580002406C00024000000240D7
:1029F00080B584B000AF78607B68DB6B1B68FB60E0
:102A00007B681B681B68BB607B681B6C04229A4058
:102A1000FB681340002B4FD0BB6803F00403002B6E
:102A20004AD07B681B681B6803F02003002B07D18A
:102A30007B681B681A687B681B6822F004021A60B6
:102A40007B681B68664A934229D07B681B68654A8D
:102A5000934222D07B681B68634A93421AD07B68FA
:102A60001B68624A934212D07B681B68604A93429B
:102A70000AD07B681B685F4A934202D14FF48003FF
:102A80000EE04FF080630BE04FF4802308E04FF43A
:102A9000804305E04FF4806302E0402300E004231C
:102AA000554A53607B68DB6A002B00F094807B689A
:102AB000DB6A786898478EE07B681B6C02229A403C
:102AC000FB681340002B56D0BB6803F00203002BB9
:102AD00051D07B681B681B6803F02003002B0BD1CF
:102AE0007B681B681A687B681B6822F00A021A6000
:102AF0007B68012283F821207B681B68384A934257
:102B000029D07B681B68374A934222D07B681B68B8
:102B1000354A93421AD07B681B68344A934212D0DC
:102B20007B681B68324A93420AD07B681B68314A33
:102B3000934202D14FF400130EE04FF000730BE00C
:102B40004FF4003308E04FF4005305E04FF40073F6
:102B500002E0202300E00223274A53607B68002222
:102B600083F820207B689B6A002B34D07B689B6AAB
:102B7000786898472FE07B681B6C08229A40FB68B6
:102B80001340002B28D0BB6803F00803002B23D090
:102B90007B681B681A687B681B6822F00E021A604B
:102BA0007B681A6C7B68DB6B012101FA02F25A60C8
:102BB0007B6801229A637B68012283F821207B686D
:102BC000002283F820207B681B6B002B04D07B68DD
:102BD0001B6B7868984700BF00BF1037BD4680BDAB
:102BE000080002401C000240300002404400024045
:102BF000580002406C0002400000024080B485B0E2
:102C000000AFF860B9607A603B60FB681A6CFB68E3
:102C1000DB6B012101FA02F25A60FB681B683A681B
:102C20005A60FB685B68102B08D1FB681B687A68E8
:102C30009A60FB681B68BA68DA6007E0FB681B688B
:102C4000BA689A60FB681B687A68DA6000BF14375C
:102C5000BD4680BC7047000080B48BB000AF786088
:102C6000396000237B6200233B6269E101227B6AB9
:102C700002FA03F3FB613B681B68FA691340BB610E
:102C8000BA69FB699A4240F058813B685B689A4A8E
:102C900093425ED0984A934275D8984A934258D04E
:102CA000964A93426FD8964A934252D0944A93429E
:102CB00069D8944A93424CD0924A934263D8924A3C
:102CC000934246D0904A93425DD8122B2AD8122BB9
:102CD00059D801A252F823F0532D00082D2D0008D9
:102CE0003F2D0008812D0008872D0008872D000842
:102CF000872D0008872D0008872D0008872D0008E4
:102D0000872D0008872D0008872D0008872D0008D3
:102D1000872D0008872D0008872D0008352D000815
:102D2000492D0008794A934213D02CE03B68DB68B8
:102D30003B6229E03B68DB6804333B6224E03B688C
:102D4000DB6808333B621FE03B68DB680C333B62A7
:102D50001AE03B689B68002B02D104233B6213E01E
:102D60003B689B68012B05D108233B627B68FA69AD
:102D70001A6109E008233B627B68FA695A6103E043
:102D800000233B6200E000BFBB69FF2B01D87B68DA
:102D900001E07B6804337B61BB69FF2B02D87B6A4F
:102DA0009B0002E07B6A083B9B003B617B691A68E1
:102DB0000F213B6901FA03F3DB431A40396A3B698F
:102DC00001FA03F31A437B691A603B685B6803F0FE
:102DD0008053002B00F0B1804D4B9B694C4A43F06F
:102DE000010393614A4B9B6903F00103BB60BB681D
:102DF000484A7B6A9B08023352F82330FB607B6AA7
:102E000003F003039B000F2202FA03F3DB43FA688B
:102E10001340FB607B68404A934213D07B683F4A73
:102E200093420DD07B683E4A934207D07B683D4A6F
:102E3000934201D1032306E0042304E0022302E0CD
:102E4000012300E000237A6A02F00302920093401B
:102E5000FA681343FB602F497B6A9B080233FA68C8
:102E600041F823203B685B6803F48013002B06D0F5
:102E70002D4B9A682C49BB6913438B6006E02A4BA3
:102E80009A68BB69DB43284913408B603B685B68E9
:102E900003F40013002B06D0234BDA682249BB69E8
:102EA0001343CB6006E0204BDA68BB69DB431E4965
:102EB0001340CB603B685B6803F40033002B06D003
:102EC000194B5A681849BB6913434B6006E0164B0F
:102ED0005A68BB69DB43144913404B603B685B682D
:102EE00003F48033002B21D00F4B1A680E49BB69C5
:102EF00013430B6021E000BF0000321000003110CE
:102F0000000022100000211000001210000011101B
:102F1000001002400000014000080140000C014088
:102F20000010014000140140000401400B4B1A68DE
:102F3000BB69DB43094913400B607B6A01337B6249
:102F40003B681A687B6A22FA03F3002B7FF48EAE8B
:102F500000BF00BF2C37BD4680BC70470004014055
:102F600080B483B000AF78600B467B8013467B70E3
:102F70007B78002B03D07A887B681A6103E07B881A
:102F80001A047B681A6100BF0C37BD4680BC7047CD
:102F900080B586B000AF78607B68002B01D101233B
:102FA00072E27B681B6803F00103002B00F087804E
:102FB000924B5B6803F00C03042B0CD08F4B5B68C7
:102FC00003F00C03082B12D18C4B5B6803F48033A5
:102FD000B3F5803F0BD1894B1B6803F40033002B02
:102FE0006CD07B685B68002B68D101234CE27B6866
:102FF0005B68B3F5803F06D1804B1B687F4A43F482
:10300000803313602EE07B685B68002B0CD17B4B18
:103010001B687A4A23F480331360784B1B68774A25
:1030200023F4802313601DE07B685B68B3F5A02F59
:103030000CD1724B1B68714A43F4802313606F4BB1
:103040001B686E4A43F4803313600BE06B4B1B68C4
:103050006A4A23F480331360684B1B68674A23F481
:10306000802313607B685B68002B13D0FEF786FE1D
:10307000386108E0FEF782FE02463B69D31A642BF2
:1030800001D9032300E25D4B1B6803F40033002BDE
:10309000F0D014E0FEF772FE386108E0FEF76EFE35
:1030A00002463B69D31A642B01D90323ECE1534B4D
:1030B0001B6803F40033002BF0D100E000BF7B68F5
:1030C0001B6803F00203002B63D04C4B5B6803F0DA
:1030D0000C03002B0BD0494B5B6803F00C03082B4F
:1030E0001CD1464B5B6803F48033002B16D1434B55
:1030F0001B6803F00203002B05D07B681B69012BC2
:1031000001D00123C0E13D4B1B6823F0F8027B682E
:103110005B69DB00394913430B603AE07B681B694C
:10312000002B20D0364B01221A60FEF727FE3861B3
:1031300008E0FEF723FE02463B69D31A022B01D9B1
:103140000323A1E12D4B1B6803F00203002BF0D0F9
:103150002A4B1B6823F0F8027B685B69DB00274978
:1031600013430B6015E0264B00221A60FEF706FEA3
:10317000386108E0FEF702FE02463B69D31A022BD3
:1031800001D9032380E11D4B1B6803F00203002BD0
:10319000F0D17B681B6803F00803002B3AD07B68F2
:1031A0009B69002B19D0174B01221A60FEF7E6FD30
:1031B000386108E0FEF7E2FD02463B69D31A022BB4
:1031C00001D9032360E10D4B5B6A03F00203002B7E
:1031D000F0D0012000F0CEFA1CE00A4B00221A6069
:1031E000FEF7CCFD38610FE0FEF7C8FD02463B69F3
:1031F000D31A022B08D9032346E100BF0010024076
:103200000000424280044242924B5B6A03F0020398
:10321000002BE9D17B681B6803F00403002B00F04E
:10322000A6800023FB758B4BDB6903F08053002BDA
:103230000DD1884BDB69874A43F08053D361854BBE
:10324000DB6903F08053BB60BB680123FB75824BD5
:103250001B6803F48073002B18D17F4B1B687E4AD8
:1032600043F480731360FEF789FD386108E0FEF7D0
:1032700085FD02463B69D31A642B01D9032303E180
:10328000754B1B6803F48073002BF0D07B68DB6800
:10329000012B06D16F4B1B6A6E4A43F00103136288
:1032A0002DE07B68DB68002B0CD16A4B1B6A694AF6
:1032B00023F001031362674B1B6A664A23F0040381
:1032C00013621CE07B68DB68052B0CD1614B1B6A29
:1032D000604A43F0040313625E4B1B6A5D4A43F08D
:1032E000010313620BE05B4B1B6A5A4A23F0010394
:1032F0001362584B1B6A574A23F0040313627B681E
:10330000DB68002B15D0FEF739FD38610AE0FEF7C7
:1033100035FD02463B69D31A41F28832934201D906
:103320000323B1E04B4B1B6A03F00203002BEED0EA
:1033300014E0FEF723FD38610AE0FEF71FFD0246A8
:103340003B69D31A41F28832934201D903239BE0AF
:10335000404B1B6A03F00203002BEED1FB7D012BD7
:1033600005D13C4BDB693B4A23F08053D3617B683A
:10337000DB69002B00F08780364B5B6803F00C03A1
:10338000082B61D07B68DB69022B46D1334B0022CE
:103390001A60FEF7F3FC386108E0FEF7EFFC024626
:1033A0003B69D31A022B01D903236DE0294B1B681B
:1033B00003F00073002BF0D17B681B6AB3F5803FEC
:1033C00008D1244B5B6823F400327B689B68214959
:1033D00013434B601F4B5B6823F474127B68196ABC
:1033E0007B685B6A0B431B4913434B601B4B0122F9
:1033F0001A60FEF7C3FC386108E0FEF7BFFC024626
:103400003B69D31A022B01D903233DE0114B1B6802
:1034100003F00073002BF0D035E0104B00221A604F
:10342000FEF7ACFC386108E0FEF7A8FC02463B69F9
:10343000D31A022B01D9032326E0064B1B6803F0A5
:103440000073002BF0D11EE07B68DB69012B07D1F4
:10345000012319E000100240007000406000424269
:103460000B4B5B68FB60FB6803F480327B681B6A74
:103470009A4206D1FB6803F470127B685B6A9A4239
:1034800001D0012300E0002318461837BD4680BD57
:103490000010024080B584B000AF786039607B686E
:1034A000002B01D10123D0E06A4B1B6803F0070316
:1034B0003A689A4210D9674B1B6823F007026549A6
:1034C0003B6813430B60634B1B6803F007033A68C8
:1034D0009A4201D00123B8E07B681B6803F0020325
:1034E000002B20D07B681B6803F00403002B05D061
:1034F000594B5B68584A43F4E06353607B681B6830
:1035000003F00803002B05D0534B5B68524A43F489
:1035100060535360504B5B6823F0F0027B689B68FC
:103520004D4913434B607B681B6803F00103002B7C
:1035300040D07B685B68012B07D1474B1B6803F4C5
:103540000033002B15D101237FE07B685B68022BE1
:1035500007D1414B1B6803F00073002B09D10123F5
:1035600073E03D4B1B6803F00203002B01D10123E4
:103570006BE0394B5B6823F003027B685B6836497C
:1035800013434B60FEF7FAFBF8600AE0FEF7F6FB28
:103590000246FB68D31A41F28832934201D90323D1
:1035A00053E02D4B5B6803F00C027B685B689B006B
:1035B0009A42EBD1274B1B6803F007033A689A4203
:1035C00010D2244B1B6823F0070222493B681343A7
:1035D0000B60204B1B6803F007033A689A4201D046
:1035E000012332E07B681B6803F00403002B08D042
:1035F000194B5B6823F4E0627B68DB681649134370
:103600004B607B681B6803F00803002B09D0124B4A
:103610005B6823F460527B681B69DB000E4913432F
:103620004B6000F021F802460B4B5B681B0903F06E
:103630000F030A49CB5C22FA03F3094A1360094BD2
:103640001B681846FEF758FB002318461037BD4686
:1036500080BD00BF0020024000100240CC9B00084B
:10366000000000200400002080B487B000AF0023D9
:10367000FB600023BB6000237B6100237B60002391
:103680003B611E4B5B68FB60FB6803F00C03042B83
:1036900002D0082B03D027E0194B3B6127E0FB68E1
:1036A0009B0C03F00F03174AD35C7B60FB6803F4A9
:1036B0008033002B10D0114B5B685B0C03F00103CF
:1036C000114AD35CBB607B680D4A03FB02F2BB6806
:1036D000B2FBF3F37B6104E07B680C4A02FB03F36B
:1036E0007B617B693B6102E0054B3B6100BF3B694D
:1036F00018461C37BD4680BC704700BF0010024012
:1037000000127A00E49B0008F49B000800093D00C9
:1037100080B400AF024B1B681846BD4680BC7047A2
:103720000000002080B500AFFFF7F2FF0246054B16
:103730005B681B0A03F007030349CB5C22FA03F31F
:10374000184680BD00100240DC9B000880B500AF29
:10375000FFF7DEFF0246054B5B68DB0A03F0070359
:103760000349CB5C22FA03F3184680BD00100240E7
:10377000DC9B000880B485B000AF78600A4B1B6802
:103780000A4AA2FB03235B0A7A6802FB03F3FB608D
:1037900000BFFB685A1EFA60002BF9D100BF00BFC2
:1037A0001437BD4680BC704700000020D34D621026
:1037B00080B586B000AF786000233B610023FB60DA
:1037C0007B681B6803F00103002B7DD00023FB7591
:1037D0004F4BDB6903F08053002B0DD14C4BDB6961
:1037E0004B4A43F08053D361494BDB6903F080536C
:1037F000BB60BB680123FB75464B1B6803F48073F9
:10380000002B18D1434B1B68424A43F4807313606A
:10381000FEF7B4FA386108E0FEF7B0FA02463B69F9
:10382000D31A642B01D903236DE03A4B1B6803F4D0
:103830008073002BF0D0364B1B6A03F44073FB609F
:10384000FB68002B2ED07B685B6803F44073FA683A
:103850009A4227D02E4B1B6A23F44073FB602E4BF9
:1038600001221A602C4B00221A60294AFB6813625D
:10387000FB6803F00103002B14D0FEF77FFA3861D8
:103880000AE0FEF77BFA02463B69D31A41F288321E
:10389000934201D9032336E01D4B1B6A03F0020358
:1038A000002BEED01A4B1B6A23F440727B685B68D6
:1038B000174913430B62FB7D012B05D1144BDB69C8
:1038C000134A23F08053D3617B681B6803F0020323
:1038D000002B08D00E4B5B6823F440427B689B684A
:1038E0000B4913434B607B681B6803F01003002BEC
:1038F00008D0074B5B6823F480027B68DB680449CF
:1039000013434B60002318461837BD4680BD00BFE7
:1039100000100240007000404004424280B582B076
:1039200000AF78607B68002B01D1012376E07B68D3
:103930005B6A002B08D17B685B68B3F5827F09D096
:103940007B680022DA6105E07B6800221A617B68EF
:1039500000225A617B6800229A627B6893F851309A
:10396000DBB2002B06D17B68002283F850207868F8
:10397000FDF7A6FE7B68022283F851207B681B6856
:103980001A687B681B6822F040021A607B685B68DB
:1039900003F482727B689B6803F404431A437B68D8
:1039A000DB6803F400631A437B681B6903F00203BE
:1039B0001A437B685B6903F001031A437B689B69C8
:1039C00003F400731A437B68DB6903F038031A437E
:1039D0007B681B6A03F0800342EA03017B689B6AF1
:1039E00003F400527B681B680A431A607B689B697A
:1039F0001A0C7B681B6802F004025A607B681B6823
:103A0000DA697B681B6822F40062DA617B68002255
:103A10005A657B68012283F8512000231846083735
:103A2000BD4680BD80B588B000AFF860B9603B602E
:103A30001346FB80FEF7A2F9F861FB887B83FB68E5
:103A400093F85130DBB2012B01D002232AE1BB688D
:103A5000002B02D0FB88002B01D1012322E1FB685F
:103A600093F85030012B01D102231BE1FB680122A6
:103A700083F85020FB68032283F85120FB68002262
:103A80005A65FB68BA681A63FB68FA889A86FB680D
:103A9000FA88DA86FB6800229A63FB6800229A871C
:103AA000FB680022DA87FB6800225A64FB68002268
:103AB0001A64FB689B68B3F5004F0FD1FB681B6865
:103AC0001A68FB681B6822F040021A60FB681B68DA
:103AD0001A68FB681B6842F480421A60FB681B6826
:103AE0001B6803F04003402B07D0FB681B681A6873
:103AF000FB681B6842F040021A60FB68DB68B3F5A4
:103B0000006F52D1FB685B68002B02D07B8B012BCE
:103B100045D1FB681B6B1A88FB681B68DA60FB6881
:103B20001B6B9A1CFB681A63FB68DB8E9BB2013B24
:103B30009AB2FB68DA8632E0FB681B689B6803F088
:103B40000203022B12D1FB681B6B1A88FB681B68EF
:103B5000DA60FB681B6B9A1CFB681A63FB68DB8EE0
:103B60009BB2013B9AB2FB68DA8618E0FEF706F9D1
:103B70000246FB69D31A3A689A4203D83B68B3F10C
:103B8000FF3F02D13B68002B09D1FB68012283F87B
:103B90005120FB68002283F85020032382E0FB6859
:103BA000DB8E9BB2002BC7D153E0FB685B68002B18
:103BB00002D07B8B012B47D1FB681A6BFB681B681B
:103BC0000C3312781A70FB681B6B5A1CFB681A6363
:103BD000FB68DB8E9BB2013B9AB2FB68DA8633E06E
:103BE000FB681B689B6803F00203022B13D1FB6880
:103BF0001A6BFB681B680C3312781A70FB681B6B1E
:103C00005A1CFB681A63FB68DB8E9BB2013B9AB2BD
:103C1000FB68DA8618E0FEF7B1F80246FB69D31AB2
:103C20003A689A4203D83B68B3F1FF3F02D13B6840
:103C3000002B09D1FB68012283F85120FB68002288
:103C400083F8502003232DE0FB68DB8E9BB2002B12
:103C5000C6D1FA693968F86800F0C8FC0346002B41
:103C600002D0FB6820225A65FB689B68002B0AD1B2
:103C700000237B61FB681B68DB687B61FB681B685A
:103C80009B687B617B69FB68012283F85120FB689C
:103C9000002283F85020FB685B6D002B01D00123CC
:103CA00000E0002318462037BD4680BD80B588B0AF
:103CB00002AFF860B9603B601346FB80FB6893F885
:103CC0005130DBB2012B01D0022304E1FB685B68B9
:103CD000B3F5827F12D1FB689B68002B0ED1FB6885
:103CE000042283F85120FA883B6800931346BA688F
:103CF000B968F86800F0F3F80346ECE0FEF73EF828
:103D00007861BB68002B02D0FB88002B01D1012316
:103D1000E1E0FB6893F85030012B01D10223DAE097
:103D2000FB68012283F85020FB68042283F85120AD
:103D3000FB6800225A65FB68BA689A63FB68FA88D8
:103D40009A87FB68FA88DA87FB6800221A63FB68A7
:103D500000229A86FB680022DA86FB6800221A6439
:103D6000FB6800225A64FB689B68B3F5004F0FD1D3
:103D7000FB681B681A68FB681B6822F040021A6027
:103D8000FB681B681A68FB681B6822F480421A6093
:103D9000FB681B681B6803F04003402B07D0FB68DF
:103DA0001B681A68FB681B6842F040021A60FB68D7
:103DB000DB68002B70D135E0FB681B689B6803F063
:103DC0000103012B15D1FB681B6803F10C02FB6892
:103DD0009B6B1278D2B21A70FB689B6B5A1CFB6803
:103DE0009A63FB68DB8F9BB2013B9AB2FB68DA8770
:103DF00018E0FDF7C3FF02467B69D31A3A689A427E
:103E000003D83B68B3F1FF3F02D13B68002B09D1D7
:103E1000FB68012283F85120FB68002283F85020C0
:103E2000032358E0FB68DB8F9BB2002BC4D138E042
:103E3000FB681B689B6803F00103012B13D1FB682F
:103E40001B68DA68FB689B6B92B21A80FB689B6BFD
:103E50009A1CFB689A63FB68DB8F9BB2013B9AB2AA
:103E6000FB68DA8718E0FDF789FF02467B69D31A01
:103E70003A689A4203D83B68B3F1FF3F02D13B68EE
:103E8000002B09D1FB68012283F85120FB68002236
:103E900083F8502003231EE0FB68DB8F9BB2002BCE
:103EA000C6D17A693968F86800F04EFB0346002BEA
:103EB00002D0FB6820225A65FB68012283F851205A
:103EC000FB68002283F85020FB685B6D002B01D05B
:103ED000012300E0002318461837BD4680BD80B599
:103EE0008AB000AFF860B9607A607B8001237B62A2
:103EF000FDF744FF3862FB6893F85130FB77FB68AD
:103F00005B68BB617B88FB82FB7F012B0CD0BB69AC
:103F1000B3F5827F06D1FB689B68002B02D1FB7F43
:103F2000042B01D002237FE1BB68002B05D07B6806
:103F3000002B02D07B88002B01D1012374E1FB68A8
:103F400093F85030012B01D102236DE1FB6801226F
:103F500083F85020FB6893F85130DBB2042B03D078
:103F6000FB68052283F85120FB6800225A65FB6834
:103F70007A689A63FB687A88DA87FB687A889A8716
:103F8000FB68BA681A63FB687A88DA86FB687A8805
:103F90009A86FB6800221A64FB6800225A64FB6858
:103FA0001B681B6803F04003402B07D0FB681B68AD
:103FB0001A68FB681B6842F040021A60FB68DB6805
:103FC000B3F5006F7ED1FB685B68002B02D0FB8AE3
:103FD000012B6CD1FB681B6B1A88FB681B68DA60CD
:103FE000FB681B6B9A1CFB681A63FB68DB8E9BB239
:103FF000013B9AB2FB68DA8659E0FB681B689B6854
:1040000003F00203022B1BD1FB68DB8E9BB2002B5B
:1040100016D07B6A012B13D1FB681B6B1A88FB68D7
:104020001B68DA60FB681B6B9A1CFB681A63FB68F1
:10403000DB8E9BB2013B9AB2FB68DA8600237B627F
:10404000FB681B689B6803F00103012B19D1FB6817
:10405000DB8F9BB2002B14D0FB681B68DA68FB680F
:104060009B6B92B21A80FB689B6B9A1CFB689A63ED
:10407000FB68DB8F9BB2013B9AB2FB68DA870123B6
:104080007B62FDF77BFE02463B6AD31A3A6B9A428B
:104090000DD83B6BB3F1FF3F09D0FB68012283F8D9
:1040A0005120FB68002283F850200323BCE0FB680A
:1040B000DB8E9BB2002BA0D1FB68DB8F9BB2002B69
:1040C0009BD182E0FB685B68002B02D0FB8A012B4E
:1040D00071D1FB681A6BFB681B680C3312781A707D
:1040E000FB681B6B5A1CFB681A63FB68DB8E9BB278
:1040F000013B9AB2FB68DA865DE0FB681B689B684F
:1041000003F00203022B1CD1FB68DB8E9BB2002B59
:1041100017D07B6A012B14D1FB681A6BFB681B68F4
:104120000C3312781A70FB681B6B5A1CFB681A63FD
:10413000FB68DB8E9BB2013B9AB2FB68DA860023F8
:104140007B62FB681B689B6803F00103012B19D19C
:10415000FB68DB8F9BB2002B14D0FB681B68DA680E
:10416000FB689B6BD2B21A70FB689B6B5A1CFB6896
:104170009A63FB68DB8F9BB2013B9AB2FB68DA87DC
:1041800001237B62FDF7FAFD02463B6AD31A3A6BC4
:104190009A4203D83B6BB3F1FF3F02D13B6B002B3C
:1041A00009D1FB68012283F85120FB68002283F8C3
:1041B0005020032338E0FB68DB8E9BB2002B9CD1A0
:1041C000FB68DB8F9BB2002B97D13A6A396BF8689A
:1041D00000F00CFA0346002B08D0FB6820225A6539
:1041E000FB68002283F8502001231DE0FB689B68D8
:1041F000002B0AD100233B61FB681B68DB683B6135
:10420000FB681B689B683B613B69FB68012283F884
:104210005120FB68002283F85020FB685B6D002B67
:1042200001D0012300E0002318462837BD4680BD99
:1042300080B588B000AF78607B681B685B68FB6105
:104240007B681B689B68BB61BB699B0903F001032A
:10425000002B0FD1BB6903F00103002B0AD0FB69CF
:104260009B0903F00103002B04D07B681B6C78686A
:104270009847BEE0BB695B0803F00103002B0AD03E
:10428000FB69DB0903F00103002B04D07B685B6C46
:1042900078689847ADE0BB695B0903F00103002B28
:1042A00006D1BB699B0903F00103002B00F0A1803C
:1042B000FB695B0903F00103002B00F09A80BB69E6
:1042C0009B0903F00103002B23D07B6893F8513046
:1042D000DBB2032B11D07B685B6D43F004027B687B
:1042E0005A6500237B617B681B68DB687B617B68A8
:1042F0001B689B687B617B690BE000233B617B68EB
:104300001B68DB683B617B681B689B683B613B69A2
:104310006FE0BB695B0903F00103002B14D07B68DD
:104320005B6D43F001027B685A650023FB607B688C
:104330001B689B68FB607B681B681A687B681B684E
:1043400022F040021A60FB687B685B6D002B4FD047
:104350007B681B685A687B681B6822F0E0025A6021
:104360007B68012283F85120FB6903F00203002BD4
:1043700004D1FB6903F00103002B34D07B681B6878
:104380005A687B681B6822F003025A607B68DB6C0A
:10439000002B11D07B68DB6C174A5A637B68DB6C9F
:1043A0001846FEF7ADFA0346002B05D07B685B6D1F
:1043B00043F040027B685A657B689B6C002B16D0EB
:1043C0007B689B6C0C4A5A637B689B6C1846FEF7B3
:1043D00097FA0346002B0AD07B685B6D43F04002DE
:1043E0007B685A6503E0786800F008F800E000BFD9
:1043F00000BF2037BD4680BD0F44000880B483B0A5
:1044000000AF786000BF0C37BD4680BC704780B5F8
:1044100084B000AF78607B685B6AFB60FB68002259
:10442000DA87FB680022DA86F868FFF7E7FF00BF4B
:104430001037BD4680BD000080B588B000AFF86081
:10444000B9603B601346FB71FDF798FC0246BB6AFE
:104450009B1A3A681344FB61FDF790FCB861394B35
:104460001B685B011B0DFA6902FB03F37B6154E0DF
:104470003B68B3F1FF3F50D0FDF780FC0246BB69BB
:10448000D31AFA699A4202D9FB69002B3DD1FB6825
:104490001B685A68FB681B6822F0E0025A60FB68E0
:1044A0005B68B3F5827F11D1FB689B68B3F5004F61
:1044B00004D0FB689B68B3F5806F07D1FB681B686D
:1044C0001A68FB681B6822F040021A60FB689B6A4E
:1044D000B3F5005F0FD1FB681B681A68FB681B68A7
:1044E00022F400521A60FB681B681A68FB681B689C
:1044F00042F400521A60FB68012283F85120FB68E5
:10450000002283F85020032317E07B69002B01D1A0
:104510000023FB617B69013B7B61FB681B689A6838
:10452000BB681340BA689A420CBF01230023DBB278
:104530001A46FB799A429BD1002318462037BD4684
:1045400080BD00BF0000002080B586B002AFF860DB
:10455000B9607A60FB685B68B3F5827F11D1FB6854
:104560009B68B3F5004F04D0FB689B68B3F5806F80
:1045700007D1FB681B681A68FB681B6822F04002C1
:104580001A60FB685B68B3F5827F17D1FB689B6894
:10459000B3F5806F12D17B680093BB6800220121C4
:1045A000F868FFF749FF0346002B1AD0FB685B6DE4
:1045B00043F02002FB685A65032313E07B680093F5
:1045C000BB6800228021F868FFF736FF0346002B06
:1045D00007D0FB685B6D43F02002FB685A6503233C
:1045E00000E0002318461037BD4680BD80B586B078
:1045F00002AFF860B9607A607B680093BB68012203
:104600000221F868FFF718FF0346002B07D0FB686C
:104610005B6D43F02002FB685A65032313E07B685F
:104620000093BB6800228021F868FFF705FF03466E
:10463000002B07D0FB685B6D43F02002FB685A65D6
:10464000032300E0002318461037BD4680BD80B527
:1046500082B000AF78607B68002B01D1012341E07C
:104660007B6893F83D30DBB2002B06D17B680022DB
:1046700083F83C207868FDF755FA7B68022283F8BE
:104680003D207B681A687B6804331946104600F0A9
:10469000A5FA7B68012283F846207B68012283F813
:1046A0003E207B68012283F83F207B68012283F84B
:1046B00040207B68012283F841207B68012283F837
:1046C00042207B68012283F843207B68012283F823
:1046D00044207B68012283F845207B68012283F80F
:1046E0003D20002318460837BD4680BD80B485B004
:1046F00000AF78607B6893F83D30DBB2012B01D0CE
:10470000012332E07B68022283F83D207B681B682E
:10471000184A93420ED07B681B68B3F1804F09D0D2
:104720007B681B68144A934204D07B681B68134A59
:10473000934211D17B681B689B6803F00703FB6001
:10474000FB68062B10D07B681B681A687B681B68A7
:1047500042F001021A6007E07B681B681A687B68F8
:104760001B6842F001021A60002318461437BD4648
:1047700080BC7047002C014000040040000800404D
:1047800080B485B000AF78607B6893F83D30DBB2D1
:10479000012B01D001233AE07B68022283F83D20FF
:1047A0007B681B68DA687B681B6842F00102DA608C
:1047B0007B681B68184A93420ED07B681B68B3F174
:1047C000804F09D07B681B68144A934204D07B68F1
:1047D0001B68134A934211D17B681B689B6803F0E6
:1047E0000703FB60FB68062B10D07B681B681A6808
:1047F0007B681B6842F001021A6007E07B681B6857
:104800001A687B681B6842F001021A600023184690
:104810001437BD4680BC7047002C014000040040A6
:104820000008004080B584B000AF78607B681B68EA
:10483000DB68FB607B681B681B69BB60BB6803F0BF
:104840000203002B20D0FB6803F00203002B1BD0D7
:104850007B681B686FF002021A617B6801221A777D
:104860007B681B689B6903F00303002B03D0786807
:1048700000F098F905E0786800F08BF9786800F0AE
:104880009AF97B6800221A77BB6803F00403002BB7
:1048900020D0FB6803F00403002B1BD07B681B684F
:1048A0006FF004021A617B6802221A777B681B682A
:1048B0009B6903F44073002B03D0786800F072F911
:1048C00005E0786800F065F9786800F074F97B68B5
:1048D00000221A77BB6803F00803002B20D0FB6886
:1048E00003F00803002B1BD07B681B686FF00802E5
:1048F0001A617B6804221A777B681B68DB6903F006
:104900000303002B03D0786800F04CF905E07868C9
:1049100000F03FF9786800F04EF97B6800221A77C2
:10492000BB6803F01003002B20D0FB6803F01003DA
:10493000002B1BD07B681B686FF010021A617B682C
:1049400008221A777B681B68DB6903F44073002B2D
:1049500003D0786800F026F905E0786800F019F9CE
:10496000786800F028F97B6800221A77BB6803F0AA
:104970000103002B0CD0FB6803F00103002B07D0D0
:104980007B681B686FF001021A617868FCF742FDD2
:10499000BB6803F08003002B0CD0FB6803F080039E
:1049A000002B07D07B681B686FF080021A61786863
:1049B00000F07FFABB6803F04003002B0CD0FB68CB
:1049C00003F04003002B07D07B681B686FF04002A8
:1049D0001A61786800F0F8F8BB6803F02003002B38
:1049E0000CD0FB6803F02003002B07D07B681B680A
:1049F0006FF020021A61786800F052FA00BF103799
:104A0000BD4680BD80B584B000AF786039600023BA
:104A1000FB737B6893F83C30012B01D10223B4E097
:104A20007B68012283F83C207B68022283F83D20CA
:104A30007B681B689B68BB60BB6823F07703BB6027
:104A4000BB6823F47F43BB607B681B68BA689A60CD
:104A50003B681B68B3F5005F3ED0B3F5005F00F222
:104A60008780B3F5805F00F08680B3F5805F7FD8E4
:104A7000702B1AD0702B7BD8602B50D0602B77D83E
:104A8000502B3CD0502B73D8402B58D0402B6FD894
:104A9000302B64D0302B6BD8202B60D0202B67D8E4
:104AA000002B5CD0102B5AD062E07B6818683B6802
:104AB00099683B685A683B68DB6800F074F97B686A
:104AC0001B689B68BB60BB6843F07703BB607B6877
:104AD0001B68BA689A604FE07B6818683B68996801
:104AE0003B685A683B68DB6800F05DF97B681B68CF
:104AF0009A687B681B6842F480429A603CE07B685D
:104B000018683B6859683B68DB681A4600F0D4F8BF
:104B10007B681B685021184600F02BF92CE07B685D
:104B200018683B6859683B68DB681A4600F0F2F881
:104B30007B681B686021184600F01BF91CE07B684D
:104B400018683B6859683B68DB681A4600F0B4F89F
:104B50007B681B684021184600F00BF90CE07B686D
:104B60001A683B681B681946104600F002F903E01A
:104B70000123FB7300E000BF7B68012283F83D2026
:104B80007B68002283F83C20FB7B18461037BD462B
:104B900080BD80B483B000AF786000BF0C37BD46E5
:104BA00080BC704780B483B000AF786000BF0C3722
:104BB000BD4680BC704780B483B000AF786000BF52
:104BC0000C37BD4680BC704780B483B000AF7860BE
:104BD00000BF0C37BD4680BC7047000080B485B074
:104BE00000AF786039607B681B68FB607B682F4A88
:104BF00093420BD07B68B3F1804F07D07B682C4A7F
:104C0000934203D07B682B4A934208D1FB6823F080
:104C10007003FB603B685B68FA681343FB607B686A
:104C2000224A93420BD07B68B3F1804F07D07B6858
:104C30001F4A934203D07B681E4A934208D1FB6807
:104C400023F44073FB603B68DB68FA681343FB6046
:104C5000FB6823F080023B685B691343FB607B6861
:104C6000FA681A603B689A687B68DA623B681A687F
:104C70007B689A627B680D4A934203D13B681A694C
:104C80007B681A637B6801225A617B681B6903F0A9
:104C90000103002B05D07B681B6923F001027B68B0
:104CA0001A6100BF1437BD4680BC7047002C01401C
:104CB000000400400008004080B487B000AFF860F6
:104CC000B9607A60FB681B6A7B61FB681B6A23F032
:104CD0000102FB681A62FB689B693B613B6923F038
:104CE000F0033B617B681B013A6913433B617B69BD
:104CF00023F00A037B617A69BB6813437B61FB681D
:104D00003A699A61FB687A691A6200BF1C37BD462E
:104D100080BC704780B487B000AFF860B9607A603B
:104D2000FB681B6A7B61FB681B6A23F01002FB684F
:104D30001A62FB689B693B613B6923F470433B61EA
:104D40007B681B033A6913433B617B6923F0A00333
:104D50007B61BB681B017A6913437B61FB683A691D
:104D60009A61FB687A691A6200BF1C37BD4680BC35
:104D7000704780B485B000AF786039607B689B680D
:104D8000FB60FB6823F07003FB603A68FB68134329
:104D900043F00703FB607B68FA689A6000BF143732
:104DA000BD4680BC704780B487B000AFF860B96082
:104DB0007A603B60FB689B687B617B6923F47F437F
:104DC0007B613B681A027B681A43BB6813437A69AC
:104DD00013437B61FB687A699A6000BF1C37BD464C
:104DE00080BC704780B485B000AF786039607B6864
:104DF00093F83C30012B01D1022346E07B6801226D
:104E000083F83C207B68022283F83D207B681B6886
:104E10005B68FB607B681B689B68BB60FB6823F07A
:104E20007003FB603B681B68FA681343FB607B6898
:104E30001B68FA685A607B681B68164A93420ED05A
:104E40007B681B68B3F1804F09D07B681B68124AEE
:104E5000934204D07B681B68104A93420CD1BB6814
:104E600023F08003BB603B685B68BA681343BB6098
:104E70007B681B68BA689A607B68012283F83D20D2
:104E80007B68002283F83C20002318461437BD4677
:104E900080BC7047002C0140000400400008004026
:104EA00080B483B000AF786000BF0C37BD4680BCD3
:104EB000704780B483B000AF786000BF0C37BD4648
:104EC00080BC704780B582B000AF78607B68002BF3
:104ED00001D1012342E07B6893F84130DBB2002B23
:104EE00006D17B68002283F840207868FCF77CFEBE
:104EF0007B68242283F841207B681B68DA687B6822
:104F00001B6822F40052DA60786800F009FA7B68C6
:104F10001B681A697B681B6822F490421A617B68DF
:104F20001B685A697B681B6822F02A025A617B68F9
:104F30001B68DA687B681B6842F40052DA607B68A1
:104F400000225A647B68202283F841207B6820225B
:104F500083F842207B6800225A63002318460837F2
:104F6000BD4680BD80B58AB002AFF860B9603B60D5
:104F70001346FB8000237B61FB6893F84130DBB272
:104F8000202B75D1BB68002B02D0FB88002B01D1F0
:104F900001236EE0FB6800225A64FB68212283F83B
:104FA0004120FCF7EBFE7861FB68FA889A84FB6885
:104FB000FA88DA84FB689B68B3F5805F08D1FB68E8
:104FC0001B69002B04D10023FB61BB68BB6103E0BC
:104FD000BB68FB610023BB612EE03B6800937B69EB
:104FE00000228021F86800F0DFF80346002B05D08E
:104FF000FB68202283F8412003233AE0FB69002B61
:105000000BD1BB691B881A46FB681B68C2F30802F8
:105010005A60BB690233BB6107E0FB691A78FB6821
:105020001B685A60FB690133FB61FB68DB8C9BB238
:10503000013B9AB2FB68DA84FB68DB8C9BB2002BE5
:10504000CBD13B6800937B6900224021F86800F0D7
:10505000ABF80346002B05D0FB68202283F84120E3
:10506000032306E0FB68202283F84120002300E0B0
:10507000022318462037BD4680BD80B58AB002AFF6
:10508000F860B9603B601346FB8000237B61FB68DE
:1050900093F84230DBB2202B40F08180BB68002BBC
:1050A00002D0FB88002B01D1012379E0FB680022AC
:1050B0005A64FB68222283F84220FB6800221A63AC
:1050C000FCF75CFE7861FB68FA889A85FB68FA88D1
:1050D000DA85FB689B68B3F5805F08D1FB681B69C4
:1050E000002B04D10023FB61BB68BB6103E0BB68FC
:1050F000FB610023BB6147E03B6800937B690022B2
:105100002021F86800F050F80346002B05D0FB681A
:10511000202283F84220032342E0FB69002B0CD1BC
:10512000FB681B685B689BB2C3F308039AB2BB6958
:105130001A80BB690233BB611FE0FB689B68B3F553
:10514000805F07D0FB689B68002B0AD1FB681B6956
:10515000002B06D1FB681B685B68DAB2FB691A702A
:1051600008E0FB681B685B68DBB203F07F03DAB220
:10517000FB691A70FB690133FB61FB68DB8D9BB235
:10518000013B9AB2FB68DA85FB68DB8D9BB2002B92
:10519000B2D1FB68202283F84220002300E00223E2
:1051A00018462037BD4680BD80B586B000AFF86098
:1051B000B9603B601346FB713BE03B6AB3F1FF3FD4
:1051C00037D0FCF7DBFD02463B68D31A3A6A9A42B5
:1051D00002D33B6A002B01D103233AE0FB681B6832
:1051E000DB6803F00403002B23D0BB68802B20D0A6
:1051F000BB68402B1DD0FB681B681B6803F00803CD
:10520000082B16D100237B61FB681B681B687B6140
:10521000FB681B685B687B617B69F86800F01DF8C0
:10522000FB6808225A64FB68002283F840200123AF
:105230000FE0FB681B681A68BB681340BA689A42A3
:105240000CBF01230023DBB21A46FB799A42B4D08B
:10525000002318461837BD4680BD80B495B000AF16
:1052600078607B681B680C337B637B6B53E8003F83
:105270003B633B6B23F49073FB647B681B680C33CC
:10528000FA6C3A64FB63F96B3A6C41E80023BB6348
:10529000BB6B002BE5D17B681B6814333B623B6A18
:1052A00053E8003FFB61FB6923F00103BB647B68AB
:1052B0001B681433BA6CFA62BB62B96AFA6A41E8D5
:1052C00000237B627B6A002BE5D17B681B6B012B83
:1052D00019D17B681B680C33FB60FB6853E8003F07
:1052E000BB60BB6823F010037B647B681B680C33D6
:1052F0007A6CBA617B617969BA6941E800233B61E4
:105300003B69002BE5D17B68202283F842207B6833
:1053100000221A6300BF5437BD4680BC70470000AE
:1053200080B584B000AF78607B681B681B6923F48C
:1053300040517B68DA687B681B680A431A617B68A6
:105340009A687B681B691A437B685B691343BB607F
:105350007B681B68DB6823F4B05323F00C037A6886
:105360001268B9680B43D3607B681B685B6923F4E0
:1053700040717B689A697B681B680A435A617B6845
:105380001B682C4A934203D1FEF7E0F9F86002E073
:10539000FEF7C8F9F860FA6813469B0013449A00B8
:1053A0001A447B685B689B00B2FBF3F3224AA2FBC2
:1053B00003235B091901FA6813469B0013449A0002
:1053C0001A447B685B689B00B2FBF3F21A4BA3FBA9
:1053D00002035B09642000FB03F3D31A1B01323381
:1053E000154AA2FB03235B0903F0F0031944FA6892
:1053F00013469B0013449A001A447B685B689B0029
:10540000B2FBF3F20C4BA3FB02035B09642000FB2D
:1054100003F3D31A1B013233074AA2FB03235B09B0
:1054200003F00F027B681B680A449A6000BF1037C4
:10543000BD4680BD003801401F85EB51012838BFB3
:10544000012010B50446204600F01AF800B110BD46
:1054500000F006F808B900F00BF88047F3E7000009
:10546000024B1868BFF35B8F704700BFDC0300205E
:10547000062008B501F01CF90120FCF706FA00002F
:10548000024B0146186800F025B800BF1800002044
:1054900070B50F4E0C463168054611B901F05CF944
:1054A00030602146284601F057F9431C03D14FF0E4
:1054B000FF34204670BDC41C24F00304A042F8D081
:1054C000211A284601F048F90130F2D1EFE700BF78
:1054D000E00300202DE9F843CD1C25F00305083535
:1054E0000C2D38BF0C25002D064601DBA94204D93E
:1054F0000C2333600020BDE8F883DFF8D48000F08F
:1055000069F8D8F800301C4644BB29463046FFF7FE
:10551000BFFF431C044658D1D8F800402746002F4F
:1055200043D1002C4BD023683946304604EB0309A5
:1055300001F012F9814542D1216830466D1A2946A1
:10554000FFF7A6FF01303AD023682B442360D8F838
:1055500000305A6862BBC8F800700FE02268521B26
:1055600020D40B2A17D96119A342256018BF5960AE
:10557000636808BFC8F8001062514B60304600F005
:105580002FF804F10B00231D20F00700C21A1CBFE6
:105590001B1AA350AFE76268A3420CBFC8F80020F3
:1055A0005A60EBE723466468AEE73C467F68B6E79F
:1055B0001A465B68A342FBD100235360DEE70C234D
:1055C0003046336000F00CF894E70560D6E700BF82
:1055D000E4030020014801F00CB900BF28050020B9
:1055E000014801F007B900BF28050020002B2DE974
:1055F000F0471D46BBBF03F100431D4600232D238A
:1056000088B01446B8BF1446129A109E1370149BAB
:10561000DDF84CA023F02008B8F1460F05D0B8F112
:10562000450F00D10136022300E0032307AA0492AC
:1056300006AACDE902A2CDE9003622462B4601F0AA
:1056400083F9B8F1470F074619D1119BDB070ED537
:1056500000EB06090022002320462946FBF7A4F9A7
:1056600008B1CDF81C903022079B4B451ED338461D
:10567000079B159ADB1B136008B0BDE8F087B8F1F3
:10568000460F00EB0609E5D10378302B0AD1002242
:10569000002320462946FBF787F918B9C6F1010611
:1056A000CAF80060DAF800309944D3E7591C079132
:1056B0001A70D9E7F7B50029B6BF2D232B2349422D
:1056C00009290270437029DD0DF107031D460A27E1
:1056D000B1FBF7F61A4607FB1614303402F8014CFA
:1056E0000C46632C314603F1FF33F1DC3031941E5C
:1056F00003F8011C2346411CAB420AD30DF10903F8
:105700009B1AAC4288BF002302330344181A03B02B
:10571000F0BD13F8016B01F8016FEDE73023303174
:105720008370C170031DF1E72DE9F04F91B00C4675
:10573000DDF8688016461F46054600F0C1FF036885
:1057400018460893FAF704FD00230E93D8F80030AA
:105750000990073323F0070303F1080294F818A017
:10576000D4F800B0C8F80020D3E9008929F000433C
:105770000B93CDF828804FF0FF32DDE90A01C4E930
:1057800012899C4BFBF742F970BBDDE90A014FF02F
:10579000FF32984BFBF71CF930BB00220023404638
:1057A0004946FBF70BF910B12D2384F84330924A98
:1057B000924BBAF1470F8CBF9046984603234FF0A7
:1057C000000923612BF00403236033462146284659
:1057D00000970FAA00F0D4F9013040F090804FF00C
:1057E000FF3011B0BDE8F08F42464B464046494677
:1057F000FBF70CF948B14B46002BB8BF2D23804A6C
:10580000B8BF84F843307F4BD3E763680AF0DF0109
:105810005A1C3FD10623636000224BF4806323604F
:1058200006920EAACDE904A20DAA03920DF133024D
:10583000CDE9013263684246009328464B460A91FF
:10584000FFF7D4FE0A99804647290D9928D1C81C34
:1058500002DB6368994240DDAAF1020A5FFA8AFA24
:105860005246013904F150000D91FFF723FF0E9AC3
:1058700081461318012A236102DC2268D20701D570
:10588000013323619DF83330002B9ED02D2384F803
:1058900043309AE74729BFD1002BBDD10123BAE796
:1058A000BAF1650FDCD9BAF1660F18D10029636827
:1058B0000BDD216113B92268D00702D501330B44F7
:1058C00023614FF00009A165DCE713B92268D20714
:1058D00001D50233F4E70123F2E74FF0670A0E9B8C
:1058E000994205DB23682161D807EAD54B1CE7E71D
:1058F0000029CCBF0122C1F102021344E0E7236872
:105900005A0507D42369424631462846B847013034
:105910002BD164E7BAF1650F40F2DC80D4E91201C3
:1059200000220023FBF740F8002833D00123314642
:105930002846354AB84701303FF451AFDDE90D380C
:10594000434502DB2368D8070FD5DDE9082331463C
:105950002846B84701303FF442AF4FF0000908F144
:10596000FF3804F11A0AC84509DC23689B0700F1D7
:105970000281E0680F9B9842B8BF184631E70123C7
:10598000524631462846B84701303FF428AF09F166
:105990000109E8E70D9B002B38DC0123314628463E
:1059A000194AB84701303FF41AAFDDE90D3959EA19
:1059B000030302D12368D907D7D5DDE9082331468F
:1059C0002846B84701303FF40AAF4FF0000A04F10F
:1059D0001A0B0D9B5B42534501DC4B4693E70123B9
:1059E0005A4631462846B84701303FF4F8AE0AF12E
:1059F000010AEEE7FFFFEF7FFA9B0008F69B000825
:105A0000029C0008FE9B0008069C0008A36DDDF8C0
:105A100038A05345A8BF5346002B994636DC4FF0BB
:105A2000000B29EAE97904F11A02A36D0A93A3EBAA
:105A300009035B4531DC0D9B9A453ADC2368DA07A4
:105A400037D40D9BAAEB03090A9BAAEB03039945E4
:105A5000A8BF9946B9F1000F33DC4FF0000829EADE
:105A6000E97904F11A0B0D9BAAEB0303A3EB0903DD
:105A700043457FF77AAF01235A4631462846B84757
:105A800001303FF4ACAE08F10108ECE74246314684
:105A90002846B8470130C2D1A1E601233146284645
:105AA0000A92B84701303FF49AAE0A9A0BF1010B03
:105AB000BBE73146DDE908232846B8470130C0D1AD
:105AC0008DE60A9A4B46314628464244B847013093
:105AD000C3D184E6DDF838A0BAF1010F01DCDB07A1
